:06000000020E4E020BDFB0
:03000B00020AB432
:20002B00020B7943204C69627261727920436F707972696768742028432920313939342053
:20004B0048492D5445434820536F6674776172650D0A4272697362616E652C20514C442EB0
:20006B00204175737472616C69610D0A001A244964240075D000758147740060087820FA99
:20008B00760008DAFB742760087820FA760008DAFB740060087847FA760008DAFB7400605E
:2000AB000D900F527847FAE493F6A308DAF97400600D900F527847FAE493F6A308DAF978A5
:2000CB00007900900100E849600AE4F0A319B9FFF51880F21200E5020000C0070012031ABA
:2000EB000202F17D33001208CDEBF53E1205637F00D2B1007D031205B8AA27D2B4EA00003F
:20010B002405FDE433FC7006EDB52702800BE534002418E53334FC5031C300008297008253
:20012B0095829640D8A297829582964002C2B0C2B400E534453360177D031205B8D2B5750A
:20014B002C021206B0C2B00202F1D3000080CDC2B1001206977D0F1205B80FEF24FD50919A
:20016B0080E07D41001208CDEBF53EE5344533701B120563E52060147D051205B8E5344593
:20018B00337009752C07C2B5C2B1C2B4209306752C030202F1209204C2B1C2B07D0500121F
:2001AB0006C9EB60030202F17B00E52E6480243A500E7D0012050D120697752C040202F10A
:2001CB007A0000E52E008BF063F080C3648095F05016EA75F002A42442F582E5F0340FF5C8
:2001EB0083120DEE884289430A0000740A2BFBEA24F850CFE542B53305E543B53400E543AE
:20020B00002432FDE5423400FCB53307EDB534030202F140030202F11204D77DFA0202EEDE
:20022B007D43001208CDEBF53E2093030202F1802D7D2D001208CDEBF53EE5344533701BCB
:20024B00120563E52060147D051205B8E53445337009752C07C2B5C2B1C2B4209306752CE3
:20026B00020202F1209204C2B1C2B07D05001206C975A08780707D50001208CDEBF53E2000
:20028B009204C2B1C2B0A295008296829740F7120697209503752C0220970312049F20960A
:2002AB00031204D77D6400803A7DCF001208CDEBF53E7D3212050D3094FD80A2A2920082EB
:2002CB0095829682974007C2B1C2B0752C0275A08775807F7D4B1205AC7580FF7DC8120593
:2002EB00AC7DE11205ACE52C001470030200EE14700302016D14700302022B147003020266
:20030B003C14700302028114609F1460AF80D7C007007580FF7590FF75A08775B08C752E4E
:20032B0080752106209002D2B0D2AFD288D2A8E58954F04401F589D2A9758AFB758CF2D25E
:20034B008C75CD0075CC0075C90075C80DD2AD7F0030A21112049FBF32034323020F0000FA
:20036B00EF24CD50EC20A1034323037F000030A103020453E5235401600302045320A2039F
:20038B0043230230940302046A7A02EA0000F52CE52EB48003752C0530B003752C01E523AF
:2003AB000070030204701206B07D201208CDEBC0E074390525A925780029F9D0E0F7E52384
:2003CB0030E2157D331208CDEBC0E074390525A925780029F9D0E0F7E5230030E1157D3206
:1503EB001208CDEBC0E074390525A925780029F9D0E0F7E5239D
:200400000030E0137D311208CDEBC0E074390525A92529F9D0E0F77D72001208CDEBC0E0CA
:2004200074390525A92529F9D0E0F77D721208CDEBC0E074390525A92529F9D0E0F77D45BD
:200440001208CDEBC0E074390525A92529F9D0E0F780201204D7BF32034323010F0000EFD6
:2004600024CD40030203790203887A0600020396120697D007002220A204752B002220A131
:2004800004752BFF22E52D00C423541FFA74FEBA0002800525E000DAFB448000F52B22207E
:2004A000A207E5235402700122052400E5245407900F2F93F5A07D031205AC0524E5245456
:2004C00007900F2F93F5A07D031205ACE52D24CE4002052D80A10020A107E52354017001AD
:2004E00022152400E5245407900F2F93F5A07D031205AC1524E5245407900F2F93F5A07DF4
:20050000031205ACE52D6002052D020477C00700AF05EF70167F0020A106E5235401603FC0
:200520001204D70FEF24CE50EE8034EF000024CE50197F0020A206E5235402602212049FC6
:200540000FEF24CE50EE80171204D7EF0000C3952D40F5800312049FE52D00C39F40F6D08E
:20056000070022C007007A00E52EB4800280397F0000E52E008AF063F080C3648095F050B4
:200580000AEF2437F582E4340F80140F0000740A2AFAEF24F650DBEF2437F582E4340FF513
:2005A0008300120DC712050DD0070022E526002DFAE52600B502FA22E527002DFAE5270066
:2005C000B502FA220527007439A925780029F98729E52570021525E52200540F700E12099E
:2005E00074EB600205227D4400120988E5320045316063E520605F7458C39532FD7402953D
:2006000031FCED24C3EC34FF5002D2B5E5320024F5E53134FF400E7932E7242FFD1208CD51
:20062000EBF53EC2B5E53200C39401F532FDE5319400F531FCED4C701DC2B11520E52060F3
:2006400002C2B07C07007D08AB217A00120E518A2F8B30752C07E52C0024F97037E5206011
:2006600033E53024F5E52F34FF400C7930E7242FFD1208CDEBF53EE53000C39401F530FD12
:20068000E52F9400F52FFCED4C7009752C017531027532582200007B0000D2B6007D0112E2
:2006A00005ACC2B67D011205AC0BEB24CE50EB227B0000D2B6007D011205ACC2B67D01123F
:2006C00005AC0BEB240650EB22C00600C007A8057F00A2958296829740057D641205AC20C2
:2006E000950D1206977DC81205AC882C0208BFA296007297500302078E1206977DC81205EE
:20070000AC752B7E7D3D1208CDEBF53E806B209713BF010D0520E52024F55008752001801D
:20072000037F0100209613BF020D0521E52124F6500875210180037F0200BF0127E5202456
:2007400030FDE433FCED4C700F7C007D001208CDEBF53E752B0E801BE5200024FFFDE4341D
:20076000FFFC80E9E521002430FD1208CDEBF53E752B707DC8001205ACA295008296829739
:2007800040F71206972095861204770208BF3097030208501206977DC81205ACE52E30E7DD
:2007A0000DF93395E0F8E4C399FDE4988007E52E00FD3395E0FC0000EDFF7D201208CDEB44
:2007C000C0E074390525A925780029F9D0E0F77C007D0AEFFB3395E0FA120EF7EB2430FDB1
:2007E0001208CDEBC0E074390525A925780029F9D0E0F77C0AEF120BEF80337C00007D0A6A
:20080000EFFB3395E0FA120EF7EB2430FD1208CDEBC0E074390525A925780029F9D0E0F7A1
:200820007C007D0AEFFB3395E0FA120EFFEBFF000070C8E52E30E7137D2D1208CDEBC0E08F
:2008400074390525A92529F9D0E0F77D7400805C2096751206977DC81205ACAE33AF347D3A
:20086000201208CDEBC0E074390525A925780029F9D0E0F77C00007D0AAA06AB07120ED0AB
:20088000EB2430FD1208CDEBC0E074390525A925780029F9D0E0F77C007D0AAA06AB07124D
:2008A0000EC48A068B07EF4E70CA7D4F1208CDEBC0E074390525A925780029F9D0E0F77B2E
:2008C0000100D00700D006227B000080F5ED000024E0607824F3700302095824FD604114CC
:2008E000604214604314604414604514604614604714604814604914604A24FC607224FC70
:20090000604624FE606624FE605224F6605A14603F24DE604B24FE604B24A560377B002277
:200920007B8800227BDB00227BA200227B9200227BD100227B9400227B8400227BDA002275
:200940007B8000227B9000227BC000227BFF00227BE000227BC800227BF700227BA400229D
:200960007BE700227BA500227BF000227BAC00227BB60022C2A000120AA7D2A0120A9C7BBE
:200980000130A0011B220000C007008D467F00E5460030E00CC2A0120A89D2A0120A9C8037
:2009A0000BC2A000120A9CD2A0120A89E54600C313F5460FEF24F850D6D007227B0000E526
:2009C0002800147A0170011AEA00005D30E00AE528C313F528648C8005E52800C313F528FF
:2009E00000EDC313FD0BEB24F850D422C00600C0077E007F00C2A000120A89D2A0120A8937
:200A0000120A89A2A0E433FB035480FAEEC3134AFE120A9C0FEF24F850DBAB06D007D006A5
:200A200022C00600C0077E00752800120974EB700D120AA70EEE24FB50EE7B0080457DCC50
:200A4000001209887DBE1209881209ECEBF5451209ECEBFFA845FA530280E8C3134AF544FB
:200A6000AD001209BCAD071209BC7F001209EC8B051209BC0FEF24F950F2E52870B3854424
:200A80002E7B01D00700D0062200000000000022120A89120A89000000000022120A901291
:200AA0000A90120A9080E97A0000120A9C0AEA24F650F722C0D000C0E0C082C083C00FC09A
:200AC0000EC00DC00CC00BC00AC009C008C005C004C003C002C001C000C0F0758AFB758C0F
:200AE000F2E52C24F96030E526540F702AE52A600F752A00E529543F4440F580E529800DEC
:200B0000752A01E52B543F4480F580E52B30E604D2A78003C2A700750800750900750A014F
:200B2000750BF4AA35AB36AC37AD38120CEFEA4B4C4D70031205C4E538002401F538E53705
:200B40003400F537E5363400F536E5353400F5350526D0F0D000D001D002D003D004D00569
:200B6000D008D009D00AD00BD00CD00DD00ED00FD083D082D0E0D0D032C0D000C0E0C00F73
:200B8000C00EC00DC00CC00BC00AC009C008C005C004C003C00230CF07E4F533F5348017E8
:200BA00085CB0BE4F50AF509F508FAFB7CBE7DBC120D2B8C338D34C2CF00C2CE75CD0075F2
:200BC000CC00D002D003D004D005D008D009D00AD00BD00CD00DD00ED00FD0E0D0D032C0DD
:200BE000D000C0E0C2B1C2B0C2B4D0E0D0D032FAEC30E702F404F5F0EA30E702F404848AC3
:200C0000F0FAEC65F030E704EAF404FAEA22FAEC30E702F404F5F0EA30E702F40484E5F076
:200C200080DDE4F8F50CF50DF50EF50FED4C4B4A7003020CD6E5084509450A450B703422AC
:200C4000EAC3950840337013EB9509402C700CEC950A40257005ED950B401EE50B250BF57E
:200C60000BE50A350AF50AE5093509F509E5083508F50808E50830E7C7E508C39A401A7004
:200C800015E5099B4013700EE50A9C400C7007E50B9D40056003C38012C3ED950BFDEC953F
:200CA0000AFCEB9509FBEA9508FAD3E50F33F50FE50E33F50EE50D33F50DE50C33F50CE5D1
:200CC00008C313F508E50913F509E50A13F50AE50B13F50BD8A38D0B8C0A8B098A08AD0FAB
:200CE000AC0EAB0DAA0C22C000120C22D00022C000120C22D000AD0BAC0AAB09AA0822EA08
:200D000030E70DE4C39DFDE49CFCE49BFBE49AFAE50830E715E4C3950BF50BE4950AF50A1E
:200D2000E49509F509E49508F50822C000C001A908EA6201120CFF120C22E930E70DE4C303
:200D40009DFDE49CFCE49BFBE49AFAD001D00022C000C001A902120CFF120C22AD0BAC0AD1
:200D6000AB09AA0889E030E70DE4C39DFDE49CFCE49BFBE49AFAD001D00022E5836003E45F
:200D80009322A882E622E5836004E4938003A882E6F822E5836004E4938003A882E6F9228B
:200DA000E5836004E4938003A882E6FA22E5836004E4938003A882E6FB22E5836004E4930B
:200DC0008003A882E6FC22E5836004E4938003A882E6FD22E5836004E4938003A882E6FE99
:200DE00022E5836004E4938003A882E6FF22E5836008E493F8740193F922A882E6C0E008C0
:200E0000E6F9D0E0F822E5836008E493FA740193FB22A882E6C0E008E6FBD0E0FA22E583F6
:200E20006008E493FC740193FD22A882E6C0E008E6FDD0E0FC22E5836008E493FE740193FA
:200E4000FF22A882E6C0E008E6FFD0E0FE2202007EC000C001ED8BF0A4F8A9F0ED8AF0A45B
:200E600029F9EC8BF0A429FAE8FBD001D00022E4F5F0F8F9EA4B6043EC4D701322EAC39CC3
:200E800040137004EB9D400DEDC333FDEC33FC05F0EC30E7E8EAC39C40067007EB9D5003FA
:200EA000C38008C3EB9DFBEA9CFAD3E933F9E833F8ECC313FCED13FDD5F0DA8B058A048826
:200EC00002890322C000C001120E6FD001D00022C000C001120E6FD001D0008C028D03229E
:200EE000EA30E707E4C39BFBE49AFAEC30E707E4C39DFDE49CFC22120EFFAA04AB0522C0ED
:200F000000C001EC6A33EA13C0E0120EE0120E6FD0E0C0E030E707E4C39BFBE49AFAD0E088
:200F200030E607E4C39DFDE49CFCD001D00022EFFF9FDFC7D7B7F732302B26231E19140F2C
:120F40000A08070805DC0578051404B0044C03E8038491
:00000001FF
